{
  "_format": "hh-sol-artifact-1",
  "contractName": "Guessnumber",
  "sourceName": "contracts/Guessnumber.sol",
  "abi": [
    {
      "inputs": [
        {
          "internalType": "bytes32",
          "name": "_nonceHash",
          "type": "bytes32"
        },
        {
          "internalType": "bytes32",
          "name": "_nonceNumHash",
          "type": "bytes32"
        }
      ],
      "stateMutability": "payable",
      "type": "constructor"
    },
    {
      "anonymous": false,
      "inputs": [
        {
          "indexed": true,
          "internalType": "address",
          "name": "player",
          "type": "address"
        },
        {
          "indexed": false,
          "internalType": "uint16",
          "name": "number",
          "type": "uint16"
        }
      ],
      "name": "guessEvent",
      "type": "event"
    },
    {
      "anonymous": false,
      "inputs": [
        {
          "indexed": true,
          "internalType": "address",
          "name": "player",
          "type": "address"
        },
        {
          "indexed": false,
          "internalType": "uint16",
          "name": "diffNumber",
          "type": "uint16"
        }
      ],
      "name": "playerDiffNumber",
      "type": "event"
    },
    {
      "anonymous": false,
      "inputs": [
        {
          "indexed": true,
          "internalType": "bytes32",
          "name": "_nonce",
          "type": "bytes32"
        },
        {
          "indexed": false,
          "internalType": "uint16",
          "name": "_number",
          "type": "uint16"
        }
      ],
      "name": "revealEvent",
      "type": "event"
    },
    {
      "inputs": [],
      "name": "bet",
      "outputs": [
        {
          "internalType": "uint256",
          "name": "",
          "type": "uint256"
        }
      ],
      "stateMutability": "view",
      "type": "function"
    },
    {
      "inputs": [
        {
          "internalType": "uint16",
          "name": "_number",
          "type": "uint16"
        }
      ],
      "name": "guess",
      "outputs": [],
      "stateMutability": "payable",
      "type": "function"
    },
    {
      "inputs": [
        {
          "internalType": "uint256",
          "name": "",
          "type": "uint256"
        }
      ],
      "name": "guessPlayer",
      "outputs": [
        {
          "internalType": "address",
          "name": "player",
          "type": "address"
        },
        {
          "internalType": "uint16",
          "name": "guessNumber",
          "type": "uint16"
        }
      ],
      "stateMutability": "view",
      "type": "function"
    },
    {
      "inputs": [],
      "name": "host",
      "outputs": [
        {
          "internalType": "address",
          "name": "",
          "type": "address"
        }
      ],
      "stateMutability": "view",
      "type": "function"
    },
    {
      "inputs": [
        {
          "internalType": "bytes32",
          "name": "_nonce",
          "type": "bytes32"
        },
        {
          "internalType": "uint16",
          "name": "_number",
          "type": "uint16"
        }
      ],
      "name": "reveal",
      "outputs": [],
      "stateMutability": "nonpayable",
      "type": "function"
    },
    {
      "inputs": [],
      "name": "state",
      "outputs": [
        {
          "internalType": "enum Guessnumber.State",
          "name": "",
          "type": "uint8"
        }
      ],
      "stateMutability": "view",
      "type": "function"
    }
  ],
  "bytecode": "0x6080604052604051620017d6380380620017d6833981810160405281019062000029919062000103565b600034116200003757600080fd5b33600260006101000a81548173ffffffffffffffffffffffffffffffffffffffff021916908373ffffffffffffffffffffffffffffffffffffffff1602179055503460038190555081600081905550806001819055506000600460006101000a81548160ff02191690836002811115620000b657620000b56200014a565b5b0217905550505062000179565b600080fd5b6000819050919050565b620000dd81620000c8565b8114620000e957600080fd5b50565b600081519050620000fd81620000d2565b92915050565b600080604083850312156200011d576200011c620000c3565b5b60006200012d85828601620000ec565b92505060206200014085828601620000ec565b9150509250929050565b7f4e487b7100000000000000000000000000000000000000000000000000000000600052602160045260246000fd5b61164d80620001896000396000f3fe6080604052600436106100555760003560e01c8063099c47311461005a57806311610c251461008357806320452153146100ae5780639414e4df146100ec578063c19d93fb14610108578063f437bc5914610133575b600080fd5b34801561006657600080fd5b50610081600480360381019061007c9190610c76565b61015e565b005b34801561008f57600080fd5b506100986105d9565b6040516100a59190610ccf565b60405180910390f35b3480156100ba57600080fd5b506100d560048036038101906100d09190610d16565b6105df565b6040516100e3929190610d93565b60405180910390f35b61010660048036038101906101019190610dbc565b61063d565b005b34801561011457600080fd5b5061011d610ac1565b60405161012a9190610e60565b60405180910390f35b34801561013f57600080fd5b50610148610ad4565b6040516101559190610e7b565b60405180910390f35b600260009054906101000a900473ffffffffffffffffffffffffffffffffffffffff1673ffffffffffffffffffffffffffffffffffffffff163373ffffffffffffffffffffffffffffffffffffffff16146101b857600080fd5b600160028111156101cc576101cb610de9565b5b600460009054906101000a900460ff1660028111156101ee576101ed610de9565b5b1461022e576040517f08c379a000000000000000000000000000000000000000000000000000000000815260040161022590610f19565b60405180910390fd5b600054826040516020016102429190610f48565b6040516020818303038152906040528051906020012014610298576040517f08c379a000000000000000000000000000000000000000000000000000000000815260040161028f90610faf565b60405180910390fd5b60015482826040516020016102ae929190610fcf565b6040516020818303038152906040528051906020012014610304576040517f08c379a00000000000000000000000000000000000000000000000000000000081526004016102fb90611044565b60405180910390fd5b60008161ffff161015801561031e57506103e88161ffff16105b1561059457600061035f82600560008154811061033e5761033d611064565b5b9060005260206000200160000160149054906101000a900461ffff16610afa565b9050600061039d83600560018154811061037c5761037b611064565b5b9060005260206000200160000160149054906101000a900461ffff16610afa565b905060056000815481106103b4576103b3611064565b5b9060005260206000200160000160009054906101000a900473ffffffffffffffffffffffffffffffffffffffff1673ffffffffffffffffffffffffffffffffffffffff167fd091e3756e2348956946a1f86d642e02cdde420bacc1830846b955564fb6639c836040516104279190611093565b60405180910390a2600560018154811061044457610443611064565b5b9060005260206000200160000160009054906101000a900473ffffffffffffffffffffffffffffffffffffffff1673ffffffffffffffffffffffffffffffffffffffff167fd091e3756e2348956946a1f86d642e02cdde420bacc1830846b955564fb6639c836040516104b79190611093565b60405180910390a28061ffff168261ffff1614156104dc576104d7610b32565b61058d565b60008161ffff168361ffff1611156104f357600190505b60058160ff168154811061050a57610509611064565b5b9060005260206000200160000160009054906101000a900473ffffffffffffffffffffffffffffffffffffffff1673ffffffffffffffffffffffffffffffffffffffff166108fc6003805461055f91906110dd565b9081150290604051600060405180830381858888f1935050505015801561058a573d6000803e3d6000fd5b50505b505061059d565b61059c610b32565b5b817fb5afc8f969e263e097873923fae8192354316544b9bd21e9138e70be50647d15826040516105cd9190611093565b60405180910390a25050565b60035481565b600581815481106105ef57600080fd5b906000526020600020016000915090508060000160009054906101000a900473ffffffffffffffffffffffffffffffffffffffff16908060000160149054906101000a900461ffff16905082565b6003543414610681576040517f08c379a0000000000000000000000000000000000000000000000000000000008152600401610678906111a9565b60405180910390fd5b60028081111561069457610693610de9565b5b600460009054906101000a900460ff1660028111156106b6576106b5610de9565b5b14156106f7576040517f08c379a00000000000000000000000000000000000000000000000000000000081526004016106ee90611215565b60405180910390fd5b6000600281111561070b5761070a610de9565b5b600460009054906101000a900460ff16600281111561072d5761072c610de9565b5b1461076d576040517f08c379a0000000000000000000000000000000000000000000000000000000008152600401610764906112a7565b60405180910390fd5b60008161ffff161015801561078757506103e88161ffff16105b6107c6576040517f08c379a00000000000000000000000000000000000000000000000000000000081526004016107bd90611339565b60405180910390fd5b6000600580549050101580156107e157506002600580549050105b610820576040517f08c379a0000000000000000000000000000000000000000000000000000000008152600401610817906113cb565b60405180910390fd5b60005b60058054905081101561096d578161ffff166005828154811061084957610848611064565b5b9060005260206000200160000160149054906101000a900461ffff1661ffff1614156108aa576040517f08c379a00000000000000000000000000000000000000000000000000000000081526004016108a19061145d565b60405180910390fd5b3373ffffffffffffffffffffffffffffffffffffffff16600582815481106108d5576108d4611064565b5b9060005260206000200160000160009054906101000a900473ffffffffffffffffffffffffffffffffffffffff1673ffffffffffffffffffffffffffffffffffffffff16141561095a576040517f08c379a0000000000000000000000000000000000000000000000000000000008152600401610951906114ef565b60405180910390fd5b80806109659061150f565b915050610823565b50600060405180604001604052803373ffffffffffffffffffffffffffffffffffffffff1681526020018361ffff1681525090506005819080600181540180825580915050600190039060005260206000200160009091909190915060008201518160000160006101000a81548173ffffffffffffffffffffffffffffffffffffffff021916908373ffffffffffffffffffffffffffffffffffffffff16021790555060208201518160000160146101000a81548161ffff021916908361ffff160217905550505060026005805490501415610a6f576001600460006101000a81548160ff02191690836002811115610a6957610a68610de9565b5b02179055505b3373ffffffffffffffffffffffffffffffffffffffff167f699e7def79aeb495a079f29f235a7c9f2b005b2776b872eadffc66c8700b18f083604051610ab59190611093565b60405180910390a25050565b600460009054906101000a900460ff1681565b600260009054906101000a900473ffffffffffffffffffffffffffffffffffffffff1681565b60008261ffff168261ffff161015610b1d578183610b189190611558565b610b2a565b8282610b299190611558565b5b905092915050565b60005b6005805490508161ffff161015610bfe5760058161ffff1681548110610b5e57610b5d611064565b5b9060005260206000200160000160009054906101000a900473ffffffffffffffffffffffffffffffffffffffff1673ffffffffffffffffffffffffffffffffffffffff166108fc600260038054610bb591906110dd565b610bbf91906115bb565b9081150290604051600060405180830381858888f19350505050158015610bea573d6000803e3d6000fd5b508080610bf6906115ec565b915050610b35565b50565b600080fd5b6000819050919050565b610c1981610c06565b8114610c2457600080fd5b50565b600081359050610c3681610c10565b92915050565b600061ffff82169050919050565b610c5381610c3c565b8114610c5e57600080fd5b50565b600081359050610c7081610c4a565b92915050565b60008060408385031215610c8d57610c8c610c01565b5b6000610c9b85828601610c27565b9250506020610cac85828601610c61565b9150509250929050565b6000819050919050565b610cc981610cb6565b82525050565b6000602082019050610ce46000830184610cc0565b92915050565b610cf381610cb6565b8114610cfe57600080fd5b50565b600081359050610d1081610cea565b92915050565b600060208284031215610d2c57610d2b610c01565b5b6000610d3a84828501610d01565b91505092915050565b600073ffffffffffffffffffffffffffffffffffffffff82169050919050565b6000610d6e82610d43565b9050919050565b610d7e81610d63565b82525050565b610d8d81610c3c565b82525050565b6000604082019050610da86000830185610d75565b610db56020830184610d84565b9392505050565b600060208284031215610dd257610dd1610c01565b5b6000610de084828501610c61565b91505092915050565b7f4e487b7100000000000000000000000000000000000000000000000000000000600052602160045260246000fd5b60038110610e2957610e28610de9565b5b50565b6000819050610e3a82610e18565b919050565b6000610e4a82610e2c565b9050919050565b610e5a81610e3f565b82525050565b6000602082019050610e756000830184610e51565b92915050565b6000602082019050610e906000830184610d75565b92915050565b600082825260208201905092915050565b7f5468652063757272656e742067616d6520737461746520646f6573206e6f742060008201527f737570706f72742072657665616c000000000000000000000000000000000000602082015250565b6000610f03602e83610e96565b9150610f0e82610ea7565b604082019050919050565b60006020820190508181036000830152610f3281610ef6565b9050919050565b610f4281610c06565b82525050565b6000602082019050610f5d6000830184610f39565b92915050565b7f696e76616c6964206e6f6e636500000000000000000000000000000000000000600082015250565b6000610f99600d83610e96565b9150610fa482610f63565b602082019050919050565b60006020820190508181036000830152610fc881610f8c565b9050919050565b6000604082019050610fe46000830185610f39565b610ff16020830184610d84565b9392505050565b7f696e76616c6964206e756d626572000000000000000000000000000000000000600082015250565b600061102e600e83610e96565b915061103982610ff8565b602082019050919050565b6000602082019050818103600083015261105d81611021565b9050919050565b7f4e487b7100000000000000000000000000000000000000000000000000000000600052603260045260246000fd5b60006020820190506110a86000830184610d84565b92915050565b7f4e487b7100000000000000000000000000000000000000000000000000000000600052601160045260246000fd5b60006110e882610cb6565b91506110f383610cb6565b9250817fffffffffffffffffffffffffffffffffffffffffffffffffffffffffffffffff048311821515161561112c5761112b6110ae565b5b828202905092915050565b7f596f7520686173206e6f74206174746163686564207468652073616d6520457460008201527f6865722076616c75652061732074686520486f7374206465706f736974656400602082015250565b6000611193603f83610e96565b915061119e82611137565b604082019050919050565b600060208201905081810360008301526111c281611186565b9050919050565b7f5468652067616d652068617320616c726561647920636f6e636c756465640000600082015250565b60006111ff601e83610e96565b915061120a826111c9565b602082019050919050565b6000602082019050818103600083015261122e816111f2565b9050919050565b7f5468652067616d65207374617465206d7573742069732077616974696e67206760008201527f7565737300000000000000000000000000000000000000000000000000000000602082015250565b6000611291602483610e96565b915061129c82611235565b604082019050919050565b600060208201905081810360008301526112c081611284565b9050919050565b7f54686520506c6179657220696e7075747320616e20696e76616c6964206e756d60008201527f6265720000000000000000000000000000000000000000000000000000000000602082015250565b6000611323602383610e96565b915061132e826112c7565b604082019050919050565b6000602082019050818103600083015261135281611316565b9050919050565b7f546869732067616d65206f6e6c7920737570706f72747320757020746f20322060008201527f706c617965727300000000000000000000000000000000000000000000000000602082015250565b60006113b5602783610e96565b91506113c082611359565b604082019050919050565b600060208201905081810360008301526113e4816113a8565b9050919050565b7f546865206e756d62657220686173206265656e2067756573736564206279206160008201527f6e6f7468657220506c6179657200000000000000000000000000000000000000602082015250565b6000611447602d83610e96565b9150611452826113eb565b604082019050919050565b600060208201905081810360008301526114768161143a565b9050919050565b7f596f752068617320616c7265616479207375626d69747465642061206775657360008201527f73696e6700000000000000000000000000000000000000000000000000000000602082015250565b60006114d9602483610e96565b91506114e48261147d565b604082019050919050565b60006020820190508181036000830152611508816114cc565b9050919050565b600061151a82610cb6565b91507fffffffffffffffffffffffffffffffffffffffffffffffffffffffffffffffff82141561154d5761154c6110ae565b5b600182019050919050565b600061156382610c3c565b915061156e83610c3c565b925082821015611581576115806110ae565b5b828203905092915050565b7f4e487b7100000000000000000000000000000000000000000000000000000000600052601260045260246000fd5b60006115c682610cb6565b91506115d183610cb6565b9250826115e1576115e061158c565b5b828204905092915050565b60006115f782610c3c565b915061ffff82141561160c5761160b6110ae565b5b60018201905091905056fea264697066735822122018eef5b9e20568e37200cfeecd493628ac15424409bb4c6c83af565dd3e4a13b64736f6c63430008090033",
  "linkReferences": {},
  "deployedLinkReferences": {}
}